{
  "_format": "hh-sol-artifact-1",
  "contractName": "Voting",
  "sourceName": "contracts/voting.sol",
  "abi": [
    {
      "inputs": [
        {
          "internalType": "string[]",
          "name": "proposalNames",
          "type": "string[]"
        }
      ],
      "stateMutability": "nonpayable",
      "type": "constructor"
    },
    {
      "inputs": [],
      "name": "chairperson",
      "outputs": [
        {
          "internalType": "address",
          "name": "",
          "type": "address"
        }
      ],
      "stateMutability": "view",
      "type": "function"
    },
    {
      "inputs": [
        {
          "internalType": "address",
          "name": "voter",
          "type": "address"
        }
      ],
      "name": "giveRightToVote",
      "outputs": [],
      "stateMutability": "nonpayable",
      "type": "function"
    },
    {
      "inputs": [
        {
          "internalType": "uint256",
          "name": "",
          "type": "uint256"
        }
      ],
      "name": "proposals",
      "outputs": [
        {
          "internalType": "string",
          "name": "name",
          "type": "string"
        },
        {
          "internalType": "uint256",
          "name": "voteCount",
          "type": "uint256"
        }
      ],
      "stateMutability": "view",
      "type": "function"
    },
    {
      "inputs": [
        {
          "internalType": "uint256",
          "name": "proposal",
          "type": "uint256"
        }
      ],
      "name": "vote",
      "outputs": [],
      "stateMutability": "nonpayable",
      "type": "function"
    },
    {
      "inputs": [
        {
          "internalType": "address",
          "name": "",
          "type": "address"
        }
      ],
      "name": "voters",
      "outputs": [
        {
          "internalType": "bool",
          "name": "voted",
          "type": "bool"
        },
        {
          "internalType": "uint256",
          "name": "vote",
          "type": "uint256"
        }
      ],
      "stateMutability": "view",
      "type": "function"
    },
    {
      "inputs": [],
      "name": "winningProposal",
      "outputs": [
        {
          "internalType": "uint256",
          "name": "winningProposal_",
          "type": "uint256"
        }
      ],
      "stateMutability": "view",
      "type": "function"
    }
  ],
  "bytecode": "0x60806040523480156200001157600080fd5b50604051620013da380380620013da83398181016040528101906200003791906200042e565b336000806101000a81548173ffffffffffffffffffffffffffffffffffffffff021916908373ffffffffffffffffffffffffffffffffffffffff16021790555060018060008060009054906101000a900473ffffffffffffffffffffffffffffffffffffffff1673ffffffffffffffffffffffffffffffffffffffff1673ffffffffffffffffffffffffffffffffffffffff16815260200190815260200160002060000160006101000a81548160ff02191690831515021790555060005b81518110156200019757600260405180604001604052808484815181106200012257620001216200047f565b5b60200260200101518152602001600081525090806001815401808255809150506001900390600052602060002090600202016000909190919091506000820151816000019081620001749190620006f9565b5060208201518160010155505080806200018e906200080f565b915050620000f5565b50506200085c565b6000604051905090565b600080fd5b600080fd5b600080fd5b6000601f19601f8301169050919050565b7f4e487b7100000000000000000000000000000000000000000000000000000000600052604160045260246000fd5b6200020382620001b8565b810181811067ffffffffffffffff82111715620002255762000224620001c9565b5b80604052505050565b60006200023a6200019f565b9050620002488282620001f8565b919050565b600067ffffffffffffffff8211156200026b576200026a620001c9565b5b602082029050602081019050919050565b600080fd5b600080fd5b600067ffffffffffffffff821115620002a457620002a3620001c9565b5b620002af82620001b8565b9050602081019050919050565b60005b83811015620002dc578082015181840152602081019050620002bf565b60008484015250505050565b6000620002ff620002f98462000286565b6200022e565b9050828152602081018484840111156200031e576200031d62000281565b5b6200032b848285620002bc565b509392505050565b600082601f8301126200034b576200034a620001b3565b5b81516200035d848260208601620002e8565b91505092915050565b60006200037d62000377846200024d565b6200022e565b90508083825260208201905060208402830185811115620003a357620003a26200027c565b5b835b81811015620003f157805167ffffffffffffffff811115620003cc57620003cb620001b3565b5b808601620003db898262000333565b85526020850194505050602081019050620003a5565b5050509392505050565b600082601f830112620004135762000412620001b3565b5b81516200042584826020860162000366565b91505092915050565b600060208284031215620004475762000446620001a9565b5b600082015167ffffffffffffffff811115620004685762000467620001ae565b5b6200047684828501620003fb565b91505092915050565b7f4e487b7100000000000000000000000000000000000000000000000000000000600052603260045260246000fd5b600081519050919050565b7f4e487b7100000000000000000000000000000000000000000000000000000000600052602260045260246000fd5b600060028204905060018216806200050157607f821691505b602082108103620005175762000516620004b9565b5b50919050565b60008190508160005260206000209050919050565b60006020601f8301049050919050565b600082821b905092915050565b600060088302620005817fffffffffffffffffffffffffffffffffffffffffffffffffffffffffffffffff8262000542565b6200058d868362000542565b95508019841693508086168417925050509392505050565b6000819050919050565b6000819050919050565b6000620005da620005d4620005ce84620005a5565b620005af565b620005a5565b9050919050565b6000819050919050565b620005f683620005b9565b6200060e6200060582620005e1565b8484546200054f565b825550505050565b600090565b6200062562000616565b62000632818484620005eb565b505050565b5b818110156200065a576200064e6000826200061b565b60018101905062000638565b5050565b601f821115620006a95762000673816200051d565b6200067e8462000532565b810160208510156200068e578190505b620006a66200069d8562000532565b83018262000637565b50505b505050565b600082821c905092915050565b6000620006ce60001984600802620006ae565b1980831691505092915050565b6000620006e98383620006bb565b9150826002028217905092915050565b6200070482620004ae565b67ffffffffffffffff81111562000720576200071f620001c9565b5b6200072c8254620004e8565b620007398282856200065e565b600060209050601f8311600181146200077157600084156200075c578287015190505b620007688582620006db565b865550620007d8565b601f19841662000781866200051d565b60005b82811015620007ab5784890151825560018201915060208501945060208101905062000784565b86831015620007cb5784890151620007c7601f891682620006bb565b8355505b6001600288020188555050505b505050505050565b7f4e487b7100000000000000000000000000000000000000000000000000000000600052601160045260246000fd5b60006200081c82620005a5565b91507fffffffffffffffffffffffffffffffffffffffffffffffffffffffffffffffff8203620008515762000850620007e0565b5b600182019050919050565b610b6e806200086c6000396000f3fe608060405234801561001057600080fd5b50600436106100625760003560e01c80630121b93f14610067578063013cf08b146100835780632e4176cf146100b4578063609ff1bd146100d25780639e7b8d61146100f0578063a3ec138d1461010c575b600080fd5b610081600480360381019061007c9190610618565b61013d565b005b61009d60048036038101906100989190610618565b610280565b6040516100ab9291906106e4565b60405180910390f35b6100bc61033c565b6040516100c99190610755565b60405180910390f35b6100da610360565b6040516100e79190610770565b60405180910390f35b61010a600480360381019061010591906107b7565b6103e8565b005b610126600480360381019061012191906107b7565b6105ac565b6040516101349291906107ff565b60405180910390f35b6000600160003373ffffffffffffffffffffffffffffffffffffffff1673ffffffffffffffffffffffffffffffffffffffff16815260200190815260200160002090508060000160009054906101000a900460ff16156101d2576040517f08c379a00000000000000000000000000000000000000000000000000000000081526004016101c990610874565b60405180910390fd5b6002805490508210610219576040517f08c379a0000000000000000000000000000000000000000000000000000000008152600401610210906108e0565b60405180910390fd5b60018160000160006101000a81548160ff02191690831515021790555081816001018190555060016002838154811061025557610254610900565b5b90600052602060002090600202016001016000828254610275919061095e565b925050819055505050565b6002818154811061029057600080fd5b90600052602060002090600202016000915090508060000180546102b3906109c1565b80601f01602080910402602001604051908101604052809291908181526020018280546102df906109c1565b801561032c5780601f106103015761010080835404028352916020019161032c565b820191906000526020600020905b81548152906001019060200180831161030f57829003601f168201915b5050505050908060010154905082565b60008054906101000a900473ffffffffffffffffffffffffffffffffffffffff1681565b6000806000905060005b6002805490508110156103e357816002828154811061038c5761038b610900565b5b90600052602060002090600202016001015411156103d057600281815481106103b8576103b7610900565b5b90600052602060002090600202016001015491508092505b80806103db906109f2565b91505061036a565b505090565b60008054906101000a900473ffffffffffffffffffffffffffffffffffffffff1673ffffffffffffffffffffffffffffffffffffffff163373ffffffffffffffffffffffffffffffffffffffff1614610476576040517f08c379a000000000000000000000000000000000000000000000000000000000815260040161046d90610aac565b60405180910390fd5b600160008273ffffffffffffffffffffffffffffffffffffffff1673ffffffffffffffffffffffffffffffffffffffff16815260200190815260200160002060000160009054906101000a900460ff1615610506576040517f08c379a00000000000000000000000000000000000000000000000000000000081526004016104fd90610b18565b60405180910390fd5b6000600160008373ffffffffffffffffffffffffffffffffffffffff1673ffffffffffffffffffffffffffffffffffffffff16815260200190815260200160002060000160006101000a81548160ff0219169083151502179055506000600160008373ffffffffffffffffffffffffffffffffffffffff1673ffffffffffffffffffffffffffffffffffffffff1681526020019081526020016000206001018190555050565b60016020528060005260406000206000915090508060000160009054906101000a900460ff16908060010154905082565b600080fd5b6000819050919050565b6105f5816105e2565b811461060057600080fd5b50565b600081359050610612816105ec565b92915050565b60006020828403121561062e5761062d6105dd565b5b600061063c84828501610603565b91505092915050565b600081519050919050565b600082825260208201905092915050565b60005b8381101561067f578082015181840152602081019050610664565b60008484015250505050565b6000601f19601f8301169050919050565b60006106a782610645565b6106b18185610650565b93506106c1818560208601610661565b6106ca8161068b565b840191505092915050565b6106de816105e2565b82525050565b600060408201905081810360008301526106fe818561069c565b905061070d60208301846106d5565b9392505050565b600073ffffffffffffffffffffffffffffffffffffffff82169050919050565b600061073f82610714565b9050919050565b61074f81610734565b82525050565b600060208201905061076a6000830184610746565b92915050565b600060208201905061078560008301846106d5565b92915050565b61079481610734565b811461079f57600080fd5b50565b6000813590506107b18161078b565b92915050565b6000602082840312156107cd576107cc6105dd565b5b60006107db848285016107a2565b91505092915050565b60008115159050919050565b6107f9816107e4565b82525050565b600060408201905061081460008301856107f0565b61082160208301846106d5565b9392505050565b7f416c726561647920766f7465642e000000000000000000000000000000000000600082015250565b600061085e600e83610650565b915061086982610828565b602082019050919050565b6000602082019050818103600083015261088d81610851565b9050919050565b7f496e76616c69642070726f706f73616c2e000000000000000000000000000000600082015250565b60006108ca601183610650565b91506108d582610894565b602082019050919050565b600060208201905081810360008301526108f9816108bd565b9050919050565b7f4e487b7100000000000000000000000000000000000000000000000000000000600052603260045260246000fd5b7f4e487b7100000000000000000000000000000000000000000000000000000000600052601160045260246000fd5b6000610969826105e2565b9150610974836105e2565b925082820190508082111561098c5761098b61092f565b5b92915050565b7f4e487b7100000000000000000000000000000000000000000000000000000000600052602260045260246000fd5b600060028204905060018216806109d957607f821691505b6020821081036109ec576109eb610992565b5b50919050565b60006109fd826105e2565b91507fffffffffffffffffffffffffffffffffffffffffffffffffffffffffffffffff8203610a2f57610a2e61092f565b5b600182019050919050565b7f4f6e6c79206368616972706572736f6e2063616e20676976652072696768742060008201527f746f20766f74652e000000000000000000000000000000000000000000000000602082015250565b6000610a96602883610650565b9150610aa182610a3a565b604082019050919050565b60006020820190508181036000830152610ac581610a89565b9050919050565b7f54686520766f74657220616c726561647920766f7465642e0000000000000000600082015250565b6000610b02601883610650565b9150610b0d82610acc565b602082019050919050565b60006020820190508181036000830152610b3181610af5565b905091905056fea264697066735822122006e6e9def11cddcc2da4afb102f8a3b04ceeefea226e2ab618ab9f6905aaa84764736f6c63430008130033",
  "linkReferences": {},
  "deployedLinkReferences": {}
}